{
  "contractName": "Chess",
  "abi": [
    {
      "inputs": [],
      "stateMutability": "nonpayable",
      "type": "constructor"
    },
    {
      "inputs": [
        {
          "internalType": "uint256",
          "name": "",
          "type": "uint256"
        }
      ],
      "name": "GameInfo",
      "outputs": [
        {
          "internalType": "address",
          "name": "player1",
          "type": "address"
        },
        {
          "internalType": "address",
          "name": "player2",
          "type": "address"
        },
        {
          "internalType": "address payable",
          "name": "winner",
          "type": "address"
        },
        {
          "internalType": "uint256",
          "name": "amountBet",
          "type": "uint256"
        },
        {
          "internalType": "bool",
          "name": "finished",
          "type": "bool"
        }
      ],
      "stateMutability": "view",
      "type": "function"
    },
    {
      "inputs": [
        {
          "internalType": "address",
          "name": "",
          "type": "address"
        },
        {
          "internalType": "uint256",
          "name": "",
          "type": "uint256"
        }
      ],
      "name": "GamesPlayed",
      "outputs": [
        {
          "internalType": "uint256",
          "name": "",
          "type": "uint256"
        }
      ],
      "stateMutability": "view",
      "type": "function"
    },
    {
      "inputs": [],
      "name": "feePercentageBPS",
      "outputs": [
        {
          "internalType": "uint256",
          "name": "",
          "type": "uint256"
        }
      ],
      "stateMutability": "view",
      "type": "function"
    },
    {
      "inputs": [],
      "name": "gameID",
      "outputs": [
        {
          "internalType": "uint256",
          "name": "",
          "type": "uint256"
        }
      ],
      "stateMutability": "view",
      "type": "function"
    },
    {
      "inputs": [],
      "name": "minWagerAmount",
      "outputs": [
        {
          "internalType": "uint256",
          "name": "",
          "type": "uint256"
        }
      ],
      "stateMutability": "view",
      "type": "function"
    },
    {
      "inputs": [],
      "name": "owner",
      "outputs": [
        {
          "internalType": "address",
          "name": "",
          "type": "address"
        }
      ],
      "stateMutability": "view",
      "type": "function"
    },
    {
      "inputs": [
        {
          "internalType": "address",
          "name": "newOwner",
          "type": "address"
        }
      ],
      "name": "changeOwner",
      "outputs": [],
      "stateMutability": "nonpayable",
      "type": "function"
    },
    {
      "inputs": [
        {
          "internalType": "uint256",
          "name": "newFeePercentage",
          "type": "uint256"
        }
      ],
      "name": "changeFeePercentage",
      "outputs": [],
      "stateMutability": "nonpayable",
      "type": "function"
    },
    {
      "inputs": [
        {
          "internalType": "uint256",
          "name": "newMinBetAmount",
          "type": "uint256"
        }
      ],
      "name": "changeMinBetAmount",
      "outputs": [],
      "stateMutability": "nonpayable",
      "type": "function"
    },
    {
      "inputs": [],
      "name": "newGame",
      "outputs": [],
      "stateMutability": "payable",
      "type": "function"
    },
    {
      "inputs": [
        {
          "internalType": "address",
          "name": "player",
          "type": "address"
        }
      ],
      "name": "getGameID",
      "outputs": [
        {
          "internalType": "uint256",
          "name": "",
          "type": "uint256"
        }
      ],
      "stateMutability": "view",
      "type": "function"
    },
    {
      "inputs": [
        {
          "internalType": "uint256",
          "name": "game",
          "type": "uint256"
        }
      ],
      "name": "getStake",
      "outputs": [
        {
          "internalType": "uint256",
          "name": "",
          "type": "uint256"
        }
      ],
      "stateMutability": "view",
      "type": "function"
    },
    {
      "inputs": [
        {
          "internalType": "uint256",
          "name": "game",
          "type": "uint256"
        }
      ],
      "name": "joinGame",
      "outputs": [],
      "stateMutability": "payable",
      "type": "function"
    },
    {
      "inputs": [
        {
          "internalType": "uint256",
          "name": "game",
          "type": "uint256"
        },
        {
          "internalType": "address",
          "name": "winner",
          "type": "address"
        }
      ],
      "name": "declareWinner",
      "outputs": [],
      "stateMutability": "nonpayable",
      "type": "function"
    },
    {
      "inputs": [
        {
          "internalType": "uint256",
          "name": "gameId",
          "type": "uint256"
        }
      ],
      "name": "returnWagers",
      "outputs": [],
      "stateMutability": "nonpayable",
      "type": "function"
    },
    {
      "inputs": [
        {
          "internalType": "address",
          "name": "user",
          "type": "address"
        }
      ],
      "name": "getGames",
      "outputs": [
        {
          "internalType": "uint256[]",
          "name": "",
          "type": "uint256[]"
        }
      ],
      "stateMutability": "view",
      "type": "function"
    },
    {
      "inputs": [],
      "name": "getLatestGameId",
      "outputs": [
        {
          "internalType": "uint256",
          "name": "",
          "type": "uint256"
        }
      ],
      "stateMutability": "view",
      "type": "function"
    },
    {
      "inputs": [
        {
          "internalType": "uint256",
          "name": "game",
          "type": "uint256"
        }
      ],
      "name": "getGame",
      "outputs": [
        {
          "components": [
            {
              "internalType": "address",
              "name": "player1",
              "type": "address"
            },
            {
              "internalType": "address",
              "name": "player2",
              "type": "address"
            },
            {
              "internalType": "address payable",
              "name": "winner",
              "type": "address"
            },
            {
              "internalType": "uint256",
              "name": "amountBet",
              "type": "uint256"
            },
            {
              "internalType": "bool",
              "name": "finished",
              "type": "bool"
            }
          ],
          "internalType": "struct Chess.Game",
          "name": "",
          "type": "tuple"
        }
      ],
      "stateMutability": "view",
      "type": "function"
    },
    {
      "inputs": [
        {
          "internalType": "uint256",
          "name": "amount",
          "type": "uint256"
        }
      ],
      "name": "withdraw",
      "outputs": [],
      "stateMutability": "nonpayable",
      "type": "function"
    }
  ],
  "bytecode": "0x6080604052662386f26fc1000060025560c8600355348015601e575f80fd5b503360015f6101000a81548173ffffffffffffffffffffffffffffffffffffffff021916908373ffffffffffffffffffffffffffffffffffffffff1602179055506106205f81905550611ef1806100745f395ff3fe608060405260043610610113575f3560e01c8063a507fa411161009f578063d92e0bf411610063578063d92e0bf41461039b578063da19537f146103c3578063e374b097146103ff578063efaa55a014610427578063fae141921461044357610113565b8063a507fa41146102a7578063a6f9dae1146102e3578063c6199b241461030b578063c7dd4b4f14610335578063ce325bf81461035f57610113565b8063629374fe116100e6578063629374fe146101d15780636632efbb146101fb5780637d03f5f3146102375780638da5cb5b14610241578063a2f77bcc1461026b57610113565b806319c37afc146101175780632e1a7d4d1461015757806334d0fd191461017f57806339053ca6146101a7575b5f80fd5b348015610122575f80fd5b5061013d60048036038101906101389190611696565b61046b565b60405161014e959493929190611749565b60405180910390f35b348015610162575f80fd5b5061017d60048036038101906101789190611696565b610506565b005b34801561018a575f80fd5b506101a560048036038101906101a09190611696565b610609565b005b3480156101b2575f80fd5b506101bb6109a2565b6040516101c8919061179a565b60405180910390f35b3480156101dc575f80fd5b506101e56109aa565b6040516101f2919061179a565b60405180910390f35b348015610206575f80fd5b50610221600480360381019061021c91906117dd565b6109b0565b60405161022e91906118bf565b60405180910390f35b61023f610a48565b005b34801561024c575f80fd5b50610255610c28565b60405161026291906118df565b60405180910390f35b348015610276575f80fd5b50610291600480360381019061028c9190611696565b610c4d565b60405161029e919061198b565b60405180910390f35b3480156102b2575f80fd5b506102cd60048036038101906102c891906117dd565b610da6565b6040516102da919061179a565b60405180910390f35b3480156102ee575f80fd5b50610309600480360381019061030491906117dd565b610e52565b005b348015610316575f80fd5b5061031f610eed565b60405161032c919061179a565b60405180910390f35b348015610340575f80fd5b50610349610ef3565b604051610356919061179a565b60405180910390f35b34801561036a575f80fd5b5061038560048036038101906103809190611696565b610ef8565b604051610392919061179a565b60405180910390f35b3480156103a6575f80fd5b506103c160048036038101906103bc9190611696565b610f15565b005b3480156103ce575f80fd5b506103e960048036038101906103e491906119a4565b610f77565b6040516103f6919061179a565b60405180910390f35b34801561040a575f80fd5b50610425600480360381019061042091906119e2565b610fa2565b005b610441600480360381019061043c9190611696565b6113a9565b005b34801561044e575f80fd5b5061046960048036038101906104649190611696565b61158f565b005b6004602052805f5260405f205f91509050805f015f9054906101000a900473ffffffffffffffffffffffffffffffffffffffff1690806001015f9054906101000a900473ffffffffffffffffffffffffffffffffffffffff1690806002015f9054906101000a900473ffffffffffffffffffffffffffffffffffffffff1690806003015490806004015f9054906101000a900460ff16905085565b60015f9054906101000a900473ffffffffffffffffffffffffffffffffffffffff1673ffffffffffffffffffffffffffffffffffffffff163373ffffffffffffffffffffffffffffffffffffffff161461055e575f80fd5b478110156105a1576040517f08c379a000000000000000000000000000000000000000000000000000000000815260040161059890611a7a565b60405180910390fd5b60015f9054906101000a900473ffffffffffffffffffffffffffffffffffffffff1673ffffffffffffffffffffffffffffffffffffffff166108fc8290811502906040515f60405180830381858888f19350505050158015610605573d5f803e3d5ffd5b5050565b60015f9054906101000a900473ffffffffffffffffffffffffffffffffffffffff1673ffffffffffffffffffffffffffffffffffffffff163373ffffffffffffffffffffffffffffffffffffffff1614610661575f80fd5b60045f8281526020019081526020015f206004015f9054906101000a900460ff161561068b575f80fd5b5f60045f8381526020019081526020015f2060030154036106e1576040517f08c379a00000000000000000000000000000000000000000000000000000000081526004016106d890611ae2565b60405180910390fd5b5f73ffffffffffffffffffffffffffffffffffffffff1660045f8381526020019081526020015f206002015f9054906101000a900473ffffffffffffffffffffffffffffffffffffffff1673ffffffffffffffffffffffffffffffffffffffff161461074b575f80fd5b600160045f8381526020019081526020015f206004015f6101000a81548160ff0219169083151502179055505f61271060035460045f8581526020019081526020015f206003015461079d9190611b2d565b6107a79190611b9b565b90505f60045f8481526020019081526020015f205f015f9054906101000a900473ffffffffffffffffffffffffffffffffffffffff1673ffffffffffffffffffffffffffffffffffffffff168260045f8681526020019081526020015f20600301546108139190611bcb565b60405161081f90611c2b565b5f6040518083038185875af1925050503d805f8114610859576040519150601f19603f3d011682016040523d82523d5f602084013e61085e565b606091505b50509050806108a2576040517f08c379a000000000000000000000000000000000000000000000000000000000815260040161089990611c89565b60405180910390fd5b5f60045f8581526020019081526020015f206001015f9054906101000a900473ffffffffffffffffffffffffffffffffffffffff1673ffffffffffffffffffffffffffffffffffffffff168360045f8781526020019081526020015f206003015461090d9190611bcb565b60405161091990611c2b565b5f6040518083038185875af1925050503d805f8114610953576040519150601f19603f3d011682016040523d82523d5f602084013e610958565b606091505b505090508061099c576040517f08c379a000000000000000000000000000000000000000000000000000000000815260040161099390611cf1565b60405180910390fd5b50505050565b5f8054905090565b60025481565b60605f60055f8473ffffffffffffffffffffffffffffffffffffffff1673ffffffffffffffffffffffffffffffffffffffff1681526020019081526020015f20805480602002602001604051908101604052809291908181526020018280548015610a3857602002820191905f5260205f20905b815481526020019060010190808311610a24575b5050505050905080915050919050565b600254341015610a8d576040517f08c379a0000000000000000000000000000000000000000000000000000000008152600401610a8490611d59565b60405180910390fd5b5f61271060035434610a9f9190611b2d565b610aa99190611b9b565b905060015f9054906101000a900473ffffffffffffffffffffffffffffffffffffffff1673ffffffffffffffffffffffffffffffffffffffff166108fc8290811502906040515f60405180830381858888f19350505050158015610b0f573d5f803e3d5ffd5b503360045f805481526020019081526020015f205f015f6101000a81548173ffffffffffffffffffffffffffffffffffffffff021916908373ffffffffffffffffffffffffffffffffffffffff1602179055503460045f805481526020019081526020015f20600301819055505f60045f805481526020019081526020015f206004015f6101000a81548160ff0219169083151502179055505f8054905060055f3373ffffffffffffffffffffffffffffffffffffffff1673ffffffffffffffffffffffffffffffffffffffff1681526020019081526020015f2081908060018154018082558091505060019003905f5260205f20015f90919091909150555f80815480929190610c1f90611d77565b91905055505050565b60015f9054906101000a900473ffffffffffffffffffffffffffffffffffffffff1681565b610c556115f1565b610c5d6115f1565b60045f8481526020019081526020015f206040518060a00160405290815f82015f9054906101000a900473ffffffffffffffffffffffffffffffffffffffff1673ffffffffffffffffffffffffffffffffffffffff1673ffffffffffffffffffffffffffffffffffffffff168152602001600182015f9054906101000a900473ffffffffffffffffffffffffffffffffffffffff1673ffffffffffffffffffffffffffffffffffffffff1673ffffffffffffffffffffffffffffffffffffffff168152602001600282015f9054906101000a900473ffffffffffffffffffffffffffffffffffffffff1673ffffffffffffffffffffffffffffffffffffffff1673ffffffffffffffffffffffffffffffffffffffff16815260200160038201548152602001600482015f9054906101000a900460ff161515151581525050905080915050919050565b5f60055f8373ffffffffffffffffffffffffffffffffffffffff1673ffffffffffffffffffffffffffffffffffffffff1681526020019081526020015f20600160055f8573ffffffffffffffffffffffffffffffffffffffff1673ffffffffffffffffffffffffffffffffffffffff1681526020019081526020015f2080549050610e319190611bcb565b81548110610e4257610e41611dbe565b5b905f5260205f2001549050919050565b60015f9054906101000a900473ffffffffffffffffffffffffffffffffffffffff1673ffffffffffffffffffffffffffffffffffffffff163373ffffffffffffffffffffffffffffffffffffffff1614610eaa575f80fd5b8060015f6101000a81548173ffffffffffffffffffffffffffffffffffffffff021916908373ffffffffffffffffffffffffffffffffffffffff16021790555050565b60035481565b5f5481565b5f60045f8381526020019081526020015f20600301549050919050565b60015f9054906101000a900473ffffffffffffffffffffffffffffffffffffffff1673ffffffffffffffffffffffffffffffffffffffff163373ffffffffffffffffffffffffffffffffffffffff1614610f6d575f80fd5b8060028190555050565b6005602052815f5260405f208181548110610f90575f80fd5b905f5260205f20015f91509150505481565b60015f9054906101000a900473ffffffffffffffffffffffffffffffffffffffff1673ffffffffffffffffffffffffffffffffffffffff163373ffffffffffffffffffffffffffffffffffffffff1614610ffa575f80fd5b60045f8381526020019081526020015f206004015f9054906101000a900460ff1615611024575f80fd5b5f60045f8481526020019081526020015f20600301540361107a576040517f08c379a000000000000000000000000000000000000000000000000000000000815260040161107190611ae2565b60405180910390fd5b5f73ffffffffffffffffffffffffffffffffffffffff1660045f8481526020019081526020015f206002015f9054906101000a900473ffffffffffffffffffffffffffffffffffffffff1673ffffffffffffffffffffffffffffffffffffffff16146110e4575f80fd5b60045f8381526020019081526020015f205f015f9054906101000a900473ffffffffffffffffffffffffffffffffffffffff1673ffffffffffffffffffffffffffffffffffffffff168173ffffffffffffffffffffffffffffffffffffffff1614806111ae575060045f8381526020019081526020015f206001015f9054906101000a900473ffffffffffffffffffffffffffffffffffffffff1673ffffffffffffffffffffffffffffffffffffffff168173ffffffffffffffffffffffffffffffffffffffff16145b6111ed576040517f08c379a00000000000000000000000000000000000000000000000000000000081526004016111e490611e35565b60405180910390fd5b8060045f8481526020019081526020015f206002015f6101000a81548173ffffffffffffffffffffffffffffffffffffffff021916908373ffffffffffffffffffffffffffffffffffffffff160217905550600160045f8481526020019081526020015f206004015f6101000a81548160ff0219169083151502179055505f61271060035460045f8681526020019081526020015f20600301546112919190611b2d565b61129b9190611b9b565b90505f60045f8581526020019081526020015f206002015f9054906101000a900473ffffffffffffffffffffffffffffffffffffffff1673ffffffffffffffffffffffffffffffffffffffff168260045f8781526020019081526020015f20600301546113089190611bcb565b60026113149190611b2d565b60405161132090611c2b565b5f6040518083038185875af1925050503d805f811461135a576040519150601f19603f3d011682016040523d82523d5f602084013e61135f565b606091505b50509050806113a3576040517f08c379a000000000000000000000000000000000000000000000000000000000815260040161139a90611e9d565b60405180910390fd5b50505050565b5f60045f8381526020019081526020015f2060030154036113ff576040517f08c379a00000000000000000000000000000000000000000000000000000000081526004016113f690611ae2565b60405180910390fd5b60045f8281526020019081526020015f20600301543414611455576040517f08c379a000000000000000000000000000000000000000000000000000000000815260040161144c90611d59565b60405180910390fd5b5f612710600354346114679190611b2d565b6114719190611b9b565b905060015f9054906101000a900473ffffffffffffffffffffffffffffffffffffffff1673ffffffffffffffffffffffffffffffffffffffff166108fc8290811502906040515f60405180830381858888f193505050501580156114d7573d5f803e3d5ffd5b5060055f3373ffffffffffffffffffffffffffffffffffffffff1673ffffffffffffffffffffffffffffffffffffffff1681526020019081526020015f2082908060018154018082558091505060019003905f5260205f20015f90919091909150553360045f8481526020019081526020015f206001015f6101000a81548173ffffffffffffffffffffffffffffffffffffffff021916908373ffffffffffffffffffffffffffffffffffffffff1602179055505050565b60015f9054906101000a900473ffffffffffffffffffffffffffffffffffffffff1673ffffffffffffffffffffffffffffffffffffffff163373ffffffffffffffffffffffffffffffffffffffff16146115e7575f80fd5b8060038190555050565b6040518060a001604052805f73ffffffffffffffffffffffffffffffffffffffff1681526020015f73ffffffffffffffffffffffffffffffffffffffff1681526020015f73ffffffffffffffffffffffffffffffffffffffff1681526020015f81526020015f151581525090565b5f80fd5b5f819050919050565b61167581611663565b811461167f575f80fd5b50565b5f813590506116908161166c565b92915050565b5f602082840312156116ab576116aa61165f565b5b5f6116b884828501611682565b91505092915050565b5f73ffffffffffffffffffffffffffffffffffffffff82169050919050565b5f6116ea826116c1565b9050919050565b6116fa816116e0565b82525050565b5f61170a826116c1565b9050919050565b61171a81611700565b82525050565b61172981611663565b82525050565b5f8115159050919050565b6117438161172f565b82525050565b5f60a08201905061175c5f8301886116f1565b61176960208301876116f1565b6117766040830186611711565b6117836060830185611720565b611790608083018461173a565b9695505050505050565b5f6020820190506117ad5f830184611720565b92915050565b6117bc816116e0565b81146117c6575f80fd5b50565b5f813590506117d7816117b3565b92915050565b5f602082840312156117f2576117f161165f565b5b5f6117ff848285016117c9565b91505092915050565b5f81519050919050565b5f82825260208201905092915050565b5f819050602082019050919050565b61183a81611663565b82525050565b5f61184b8383611831565b60208301905092915050565b5f602082019050919050565b5f61186d82611808565b6118778185611812565b935061188283611822565b805f5b838110156118b25781516118998882611840565b97506118a483611857565b925050600181019050611885565b5085935050505092915050565b5f6020820190508181035f8301526118d78184611863565b905092915050565b5f6020820190506118f25f8301846116f1565b92915050565b611901816116e0565b82525050565b61191081611700565b82525050565b61191f8161172f565b82525050565b60a082015f8201516119395f8501826118f8565b50602082015161194c60208501826118f8565b50604082015161195f6040850182611907565b5060608201516119726060850182611831565b5060808201516119856080850182611916565b50505050565b5f60a08201905061199e5f830184611925565b92915050565b5f80604083850312156119ba576119b961165f565b5b5f6119c7858286016117c9565b92505060206119d885828601611682565b9150509250929050565b5f80604083850312156119f8576119f761165f565b5b5f611a0585828601611682565b9250506020611a16858286016117c9565b9150509250929050565b5f82825260208201905092915050565b7f616d6f756e7420657863656564732062616c616e6365000000000000000000005f82015250565b5f611a64601683611a20565b9150611a6f82611a30565b602082019050919050565b5f6020820190508181035f830152611a9181611a58565b9050919050565b7f47616d6520646f6573206e6f74206578697374000000000000000000000000005f82015250565b5f611acc601383611a20565b9150611ad782611a98565b602082019050919050565b5f6020820190508181035f830152611af981611ac0565b9050919050565b7f4e487b71000000000000000000000000000000000000000000000000000000005f52601160045260245ffd5b5f611b3782611663565b9150611b4283611663565b9250828202611b5081611663565b91508282048414831517611b6757611b66611b00565b5b5092915050565b7f4e487b71000000000000000000000000000000000000000000000000000000005f52601260045260245ffd5b5f611ba582611663565b9150611bb083611663565b925082611bc057611bbf611b6e565b5b828204905092915050565b5f611bd582611663565b9150611be083611663565b9250828203905081811115611bf857611bf7611b00565b5b92915050565b5f81905092915050565b50565b5f611c165f83611bfe565b9150611c2182611c08565b5f82019050919050565b5f611c3582611c0b565b9150819050919050565b7f4661696c656420746f2073656e6420746f20706c6179657220310000000000005f82015250565b5f611c73601a83611a20565b9150611c7e82611c3f565b602082019050919050565b5f6020820190508181035f830152611ca081611c67565b9050919050565b7f4661696c656420746f2073656e6420746f20706c6179657220320000000000005f82015250565b5f611cdb601a83611a20565b9150611ce682611ca7565b602082019050919050565b5f6020820190508181035f830152611d0881611ccf565b9050919050565b7f496e76616c69642042657420416d6f756e7400000000000000000000000000005f82015250565b5f611d43601283611a20565b9150611d4e82611d0f565b602082019050919050565b5f6020820190508181035f830152611d7081611d37565b9050919050565b5f611d8182611663565b91507fffffffffffffffffffffffffffffffffffffffffffffffffffffffffffffffff8203611db357611db2611b00565b5b600182019050919050565b7f4e487b71000000000000000000000000000000000000000000000000000000005f52603260045260245ffd5b7f57696e6e6572206e6f742056616c6964000000000000000000000000000000005f82015250565b5f611e1f601083611a20565b9150611e2a82611deb565b602082019050919050565b5f6020820190508181035f830152611e4c81611e13565b9050919050565b7f4661696c656420746f2073656e640000000000000000000000000000000000005f82015250565b5f611e87600e83611a20565b9150611e9282611e53565b602082019050919050565b5f6020820190508181035f830152611eb481611e7b565b905091905056fea26469706673582212206f102a3ebd4ece41e397487edd7a79454c8e39bdd0774f33c14230325b75d06964736f6c63430008190033",
  "immutableReferences": {},
  "source": "// SPDX-License-Identifier: UNLICENSED\npragma solidity ^0.8.25;\n\ncontract Chess {\n    uint256 public gameID;\n    address public owner;\n\n    uint256 public minWagerAmount = 0.01 ether;\n    uint256 public feePercentageBPS = 200; // 2% of bet amount\n\n    struct Game {\n        address player1;\n        address player2;\n        address payable winner;\n        uint256 amountBet;\n        bool finished;\n    }\n\n    mapping(uint256 => Game) public GameInfo;\n    mapping(address => uint256[]) public GamesPlayed;\n\n    modifier onlyOwner() {\n        require(msg.sender == owner);\n        _;\n    }\n\n    constructor() {\n        owner = msg.sender;\n        gameID = 1568;\n    }\n\n    function changeOwner(address newOwner) external onlyOwner {\n        owner = newOwner;\n    }\n\n    // newFeePercentage should be in BPS\n    function changeFeePercentage(uint256 newFeePercentage) external onlyOwner {\n        feePercentageBPS = newFeePercentage;\n    }\n\n    // newMinBetAmount should be in Wei\n    function changeMinBetAmount(uint256 newMinBetAmount) external onlyOwner {\n        minWagerAmount = newMinBetAmount;\n    }\n\n    function newGame() public payable {\n        require(msg.value >= minWagerAmount, \"Invalid Bet Amount\");\n\n        uint256 feeAmount = (msg.value * feePercentageBPS) / 10000;\n        payable(owner).transfer(feeAmount);\n\n        GameInfo[gameID].player1 = msg.sender;\n        GameInfo[gameID].amountBet = msg.value;\n        GameInfo[gameID].finished = false;\n        uint256 game = gameID;\n        GamesPlayed[msg.sender].push(game);\n        gameID++;\n    }\n\n    function getGameID(address player) public view returns (uint256) {\n        return GamesPlayed[player][GamesPlayed[player].length - 1];\n    }\n\n    function getStake(uint256 game) public view returns (uint256) {\n        return GameInfo[game].amountBet;\n    }\n\n    function joinGame(uint256 game) public payable {\n        require(GameInfo[game].amountBet != 0, \"Game does not exist\");\n        require(msg.value == GameInfo[game].amountBet, \"Invalid Bet Amount\");\n\n        uint256 feeAmount = (msg.value * feePercentageBPS) / 10000;\n        payable(owner).transfer(feeAmount);\n\n        GamesPlayed[msg.sender].push(game);\n        GameInfo[game].player2 = msg.sender;\n    }\n\n    function declareWinner(uint256 game, address winner) public onlyOwner {\n        require(!GameInfo[game].finished);\n        require(GameInfo[game].amountBet != 0, \"Game does not exist\");\n        require(GameInfo[game].winner == address(0));\n        require(\n            winner == GameInfo[game].player1 ||\n                winner == GameInfo[game].player2,\n            \"Winner not Valid\"\n        );\n        GameInfo[game].winner = payable(winner);\n        GameInfo[game].finished = true;\n\n        uint256 feeAmount = (GameInfo[game].amountBet * feePercentageBPS) /\n            10000;\n\n        (bool success, ) = GameInfo[game].winner.call{\n            value: (2 * (GameInfo[game].amountBet - feeAmount))\n        }(\"\");\n        require(success, \"Failed to send\");\n    }\n\n    function returnWagers(uint256 gameId) public onlyOwner {\n        require(!GameInfo[gameId].finished);\n        require(GameInfo[gameId].amountBet != 0, \"Game does not exist\");\n        require(GameInfo[gameId].winner == address(0));\n        GameInfo[gameId].finished = true;\n        uint256 feeAmount = (GameInfo[gameId].amountBet * feePercentageBPS) /\n            10000;\n        \n        (bool success1, ) = GameInfo[gameId].player1.call{\n            value: (GameInfo[gameId].amountBet - feeAmount)\n        }(\"\");\n        require(success1, \"Failed to send to player 1\");\n\n        (bool success2, ) = GameInfo[gameId].player2.call{\n            value: (GameInfo[gameId].amountBet - feeAmount)\n        }(\"\");\n        require(success2, \"Failed to send to player 2\");\n    }\n\n    function getGames(address user) public view returns (uint256[] memory) {\n        uint256[] memory games = GamesPlayed[user];\n        return games;\n    }\n\n    function getLatestGameId() public view returns (uint256) {\n        return gameID;\n    }\n\n    function getGame(uint256 game) public view returns (Game memory) {\n        Game memory requestedGame;\n        requestedGame = GameInfo[game];\n        return requestedGame;\n    }\n\n    function withdraw(uint256 amount) public onlyOwner {\n        require(amount>=address(this).balance, \"amount exceeds balance\");\n        payable(owner).transfer(amount);\n    }\n}\n",
  "sourcePath": "D:\\Workspace\\Fiverr\\Projects\\oookay\\3\\web3chess\\web3chess-frontend\\contracts\\Chess.sol",
  "compiler": {
    "name": "solc",
    "version": "0.8.25+commit.b61c2a91.Emscripten.clang"
  },
  "schemaVersion": "3.4.16",
  "updatedAt": "2024-04-24T17:22:22.660Z",
  "devdoc": {
    "kind": "dev",
    "methods": {},
    "version": 1
  },
  "userdoc": {
    "kind": "user",
    "methods": {},
    "version": 1
  }
}